:020000040000FA
:020000000E28C8
:10000800FE00030E83120313A2000408A3000A08CB
:10001800A400F62C0F28F422E700F522E800F622C7
:10002800E900F722EA008313A0308400C030F327E8
:100038005F3084006730F327FA01FB01FC01FD0102
:1000480083012628503084000A30FF008001840A8A
:10005800FF0B2A28DE01DE0AE5010030E20000304D
:10006800E1000030E0000030DF00D727B727C727BE
:1000780080308312B3002530B4009C264530A6009A
:100088008030A7009227FB272130A6008030A700E8
:100098009227FB275830C8004808A5003930A60029
:1000A8008030A700503077235030A6000030A700DA
:1000B80092275D30C8004808A5004F30A600803060
:1000C800A700503077235030A6000030A7009227B1
:1000D800FB270E08C800C9014808A5004908A60062
:1000E800E122640083120313861D061A9C28861ACF
:1000F8009C28413083120313C900EE30C800C80B96
:100108008328C90B832883120313861D061A9B288C
:10011800861A9B28A501003057278312A5010130B4
:1001280057278312A50102305727053062269B28DE
:100138000030E6278312C8004808FC000130E62793
:100148008312C8004808FA000230E6278312C80064
:100158004808FB007C08031DB6287A0803197B08A9
:100168000319B828E501E50A6400152283128619E7
:10017800061ED428861ED428413083120313C900D2
:10018800EE30C800C80BC628C90BC6288312031353
:100198008619061E2529861E2529DE01DE0A25293F
:1001A800861D061A0429413083120313C900EE3054
:1001B800C800C80BDD28C90BDD2883120313861D70
:1001C800061A25296508031925295E03031D252913
:1001D8007C08C8004808A500003057277A08831211
:1001E800C8004808A500013057277B088312C800BB
:1001F8004808A500023057278312DE01033024295E
:100208008619061E0929861A2529413083120313E7
:10021800C900EE30C800C80B0F29C90B0F2983127B
:1002280003138619061E1A29861A25296508031D2F
:1002380025295E03031D2529E501E50ADE010230B3
:10024800622686193F29413083120313C900EE3014
:10025800C800C80B2D29C90B2D2983120313861931
:1002680071290130C8004808FC0765307C06031D69
:100278007129FC017129061A592941308312031387
:10028800C900EE30C800C80B4729C90B472983129B
:100298000313061A71290130C8004808FA076530A7
:1002A8007A06031D7129FA017129861A71294130CC
:1002B80083120313C900EE30C800C80B6129C90BAB
:1002C800612983120313861A71290130C80048086E
:1002D800FB0765307B060319FB016508031DB82879
:1002E800FF30B9000030BA00E4253308BC003208FA
:1002F800BB004E253908013EC8003A080318013EE4
:10030800003EC9004808CA004908CB00CC01CD010D
:1003180010300310CA0DCB0DCC0DCD0DFF3E031DC3
:100328008D294D08DD004C08DC004B08DB004A082D
:10033800DA00FF30B9000030BA00E4253308BC0009
:100348003208BB004E253908C8003A08C9004808D9
:10035800C900C8014808003ECA0049080318013E00
:10036800013ECB004A08CC004B08CD00CE01CF019E
:100378004C08DA074D0803110318013E031DDB077B
:100388004E0803110318013E031DDC074F08031133
:100398000318013E031DDD07FF30B9000030BA0025
:1003A800E4253308BC003208BB004E253908013E5D
:1003B800C8003A080318013E003EC9004808CA00B0
:1003C8004908CB00CC01CD014A08DA074B080311D4
:1003D8000318013E031DDB074C0803110318013EF7
:1003E800031DDC074D0803110318013E031DDD073B
:1003F8005D08BC005C08BB005B08BA005A08B9007D
:10040800DF23063083120313CA001330C900AD304E
:10041800C800C80B0D2AC90B0D2ACA0B0D2A0000EB
:10042800B828003083120313E2000030E1000030E6
:10043800E0000030DF00660803190800640083123A
:100448000313E501E50A47303727003A031DD62A8A
:100458005830831247060319352A78304706031D9A
:100468006F2AE5010030E2000030E1000030E000D2
:100478000030DF00A501003057278312A5010130A5
:1004880057278312A50102305727A7270800C7015D
:10049800B32AC701C70AB32A02306B2A03306B2A72
:1004A80004306B2A05306B2A06306B2A07306B2A1A
:1004B80008306B2A09306B2A0A306B2A0B306B2AFA
:1004C8000C306B2A0D306B2A0E306B2A0F30C300AC
:1004D8004308C700B32A4708303A03194B2A013AA0
:1004E80003194D2A033A0319502A013A0319522ACB
:1004F800073A0319542A013A0319562A033A0319E9
:10050800582A013A03195A2A0F3A03195C2A013A60
:1005180003195E2A783A0319602A033A0319622AF2
:10052800013A0319642A073A0319662A013A03199A
:10053800682A033A03196A2A273A0319602A033AF0
:100548000319622A013A0319642A073A0319662A29
:10055800013A0319682A033A03196A2A4B2A043014
:10056800C3000310DF0DE00DE10DE20DC30BB52A4A
:100578004708C300C401C501C6014308DF07440892
:1005880003110318013E031DE00745080311031872
:10059800013E031DE107460803110318013E031D30
:1005A800E207272AA7276208BC006108BB00600889
:1005B800BA005F08B900DF2308002508E70026080D
:1005C800E800E901EA010800A5000C1EE92A25084F
:1005D80099000800A5000C1EEF2A250899000800BC
:0805E80001340034003400343A
:10060000FF1B0A2B83137F1883170008840A031922
:10061000FF0A080003308A000408840A82070034B5
:1006200000340034FF3400340034FF34003400342C
:10063000FF340034003400340034FF34FF3400341D
:10064000FF34FF3400340034FF340034FF3400340E
:10065000FF34FF34FF340034D33400349434003496
:1006600048345734203456346534723420343134AD
:100670002E3432342034263420345334573420344A
:10068000563465347234203431342E3434340034EA
:100690004E346F34763420343134303420343234B4
:1006A000303432343034003423342034523447343C
:1006B000423420344C3445344434003431343634FC
:1006C0003A34353436343A34323437340034423400
:1006D000753469346C346434203425347334003414
:1006E00028346E3475346C346C3429340034AE00E4
:1006F0002630A8002808AA000130A507FF302507EA
:1007000084000A23A8002808AB002B080319DA2B61
:1007100025302B060319CB2B2B08A8002E088400AC
:100720002808831380000130A8002808AE077C2B1E
:100730002A08840083130008AC00840A000884039C
:10074000AD000230A8002808AA072C082D04031DBC
:10075000AD2B6130AC008030AD002D08FF002C08BF
:1007600084000023003A03197C2B2D08FF002C087D
:1007700084000023A8002E0884002808831380002A
:100780000130AC070318AD0A0030AD070130A800F6
:100790002808AE07AD2B0130A507FF3025078400E0
:1007A0000A23AB00003A0319DA2B733A0319982B8A
:1007B0007C2B7C2B2E0884008313800108003B08CF
:1007C000BD003D08C0003A08BD003D08C100390821
:1007D000BD003D08C200B401FF30BD003D08B500BA
:1007E000B6016430BE003E08B7004008F426340865
:1007F000BF003F08C000B401FF30BD003D08B50098
:10080000B6016430BE003E08B7004108F426340843
:10081000BF003F08C100B401FF30BD003D08B50076
:10082000B6016430BE003E08B7004208F426340822
:10083000BF003F08C2004008BD003D08FC00410861
:10084000BD003D08FA004208BD003D08FB006508F8
:10085000031908007C08BD003D08A500003057279B
:100860007A088312BD003D08A500013057277B0898
:100870008312BD003D08A500023057270800003054
:10088000B1000030B0000030AF000030AE002808EA
:100890002704260425040319942CB201B20AA81BCC
:1008A0005F2C0130AD000310A50DA60DA70DA80DFE
:1008B000AD0B532C0130AD002D08B2074F2C013089
:1008C000AD000310AE0DAF0DB00DB10DAD0B612C31
:1008D00028082C02031D762C27082B02031D762CDA
:1008E00026082A02031D762C25082902031C872CC2
:1008F0002508A9022608031C260FAA022708031CA4
:10090000270FAB022808031C280FAC022E1401305D
:100910000310A80CA70CA60CA50CFF3E031D882CE9
:100920000130B202031D5F2C3108A8003008A70077
:100930002F08A6002E08A5000800B101AC1FA72CA7
:10094000AB09AC09AB0A0319AC0AB101B10AAE1F7D
:10095000B22CAD09AE09AD0A0319AE0A0130AF00E1
:100960002F08B106B201B3012B082C040319E92C9E
:10097000B001B00AAC1BC82C01300310AB0DAC0D9C
:10098000FF3E031DBD2C0130AF002F08B007BA2C6D
:1009900001300310B20DB30DFF3E031DC92C2C080E
:1009A0002E02031DD52C2B082D02031CDE2C2B0838
:1009B000AD022C08031CAE03AE023214013003104A
:1009C000AC0CAB0CFF3E031DDF2C0130B002031D4D
:1009D000C82C31080319F12CB209B309B20A031962
:1009E000B30A3308AC003208AB0008000C1C352DEC
:1009F0000130E3070318E40A0030E4077C08A00094
:100A0000A10121086402031D072D200863020318B9
:100A100085137A08A000A10121086402031D122D8C
:100A200020086302031805107B08A000A10121081B
:100A30006402031D1D2D2008630203188510643015
:100A400063066404031D302D7C080319282D8517C7
:100A50007A08031D05147B08031D8514E301E401D6
:100A60000C10FF308F0078308E008C1E442D0D301E
:100A70001A0603193F2D0A301A06031D422DE601FE
:100A8000E60A442D1A08D126831224088A00230876
:100A90008400220E8300FE0E7E0E0900BF01BC1FE3
:100AA000582DBB09BC09BB0A0319BC0ABF01BF0A08
:100AB000BA1F5F2DB909BA09B90A0319BA0A390868
:100AC0003A0403198C2DBE01BE0ABA1B732D0130E6
:100AD0000310B90DBA0DFF3E031D682D0130BD0096
:100AE0003D08BE07652D3A083C02031D792D3908E3
:100AF0003B02031C812D3908BB023A08031CBC03CE
:100B0000BC0201300310BA0CB90CFF3E031D822D4C
:100B10000130BE02031D732D3F080319942DBB093C
:100B2000BC09BB0A0319BC0A3C08BA003B08B9005F
:100B30000800F601F31FA32DF209F309F20A0319C5
:100B4000F30AF601F60AF11FAA2DF009F109F00ADD
:100B50000319F10A700871040319D72DF501F50A7C
:100B6000F11BBE2D01300310F00DF10DFF3E031DF2
:100B7000B32D0130F4007408F507B02D710873022D
:100B8000031DC42D70087202031CCC2D7008F202E4
:100B90007108031CF303F30201300310F10CF00C95
:100BA000FF3E031DCD2D0130F502031DBE2D76083D
:100BB0000319DF2DF209F309F20A0319F30A730886
:100BC000F1007208F00008006A08A8006908A70090
:100BD0006808A6006708A5004130AC00C630AB002D
:100BE0004E30AA006D30A90023262808EA00270805
:100BF000E9002608E8002508E7003930E70730302B
:100C000003183130E807003003180130E9070030DD
:100C100003180130EA076708B4006808B5006908DE
:100C2000B6006A08B7001030B800370DB70CB60C24
:100C3000B50CB40CB80B152EFF303405B2007F3064
:100C40003505B30008000030B1000030B0000030BE
:100C5000AF000030AE00251C412E2908AE072A083F
:100C600003110318013E031DAF072B0803110318DE
:100C7000013E031DB0072C0803110318013E031D9C
:100C8000B1070130AD000310A90DAA0DAB0DAC0DDD
:100C9000AD0B432E01300310A80CA70CA60CA50C1D
:100CA000FF3E031D4B2E2808270426042504031DA0
:100CB0002B2E3108A8003008A7002F08A6002E0808
:100CC000A50008008312A8008B132808A50025089A
:100CD000A900290803199A2E6400831203138517AB
:100CE00005148514033083120313A7008A30A6006D
:100CF0005530A500A50B7A2EA60B7A2EA70B7A2EBF
:100D0000000083120313851305108510033083122E
:100D10000313A7008A30A6005530A500A50B8E2E20
:100D2000A60B8E2EA70B8E2E00000130831203130C
:100D3000A902692E8B1708003308A5003408A60005
:100D4000A701A8010030AC003D30AB000930AA007B
:100D50000030A9003F242508B5002608B600270862
:100D6000B7002808B80004300310B80CB70CB60C54
:100D7000B50CFF3E031DB42E3508FF3E83169900C7
:100D80009813181398161812181583129817181319
:100D900098121816981183168C1683128C120B1742
:100DA0000800F8001430F0000030F10083163E080F
:100DB000013EF200003003180130F300992570085D
:100DC000F7007708F9003F0879060319080078084A
:100DD000F7003E08AA3E8400770883138000790854
:100DE000F7007708BE000800B80034083502AB00F1
:100DF000AC01031CAC0334083802A500A601031C97
:100E0000A60336083702A700A801031CA80316276B
:100E10002608AE002508AD009D2436082B07B40037
:100E20000030031801302C07B5000800A901AA0101
:100E3000251C202F2708A9070318AA0A2808AA0793
:100E400001300310A70DA80DFF3E031D212F013017
:100E50000310A60CA50CFF3E031D282F2508260411
:100E6000031D182F2A08A6002908A5000800A600BF
:100E700083163E083F06031D3F2F013008003F0840
:100E8000AA3E8400831300088312A500260884006C
:100E900025088000BF3084000008A50001308007CD
:100EA0001530250283160318BF0100300800A60084
:100EB000260883169B008312250883169A001C15AA
:100EC0007D108B1B7D148B135530831603139D00EF
:100ED000AA309D009C149C186B2F7D1C712F8B17C2
:100EE000722F8B13831603131C110800AA002A0803
:100EF000A9002908AB000130A7020030031CA80399
:100F0000A802270A0319280A031908002508A900BE
:100F10002B0884002908831380000130A9002908C8
:100F2000AB077B2F2708FF00260884000023003A28
:100F3000031908002708FF00260884000023E82280
:100F40000130A6070318A70A0030A707922F003028
:100F50008312A500A6001430A7000030A800AA3014
:100F600076278316BE01BF018312E6010800FC014B
:100F7000FA01FB01E301E401E6010030E200003088
:100F8000E1000030E0000030DF00E50108008B13D5
:100F90009001901010129012FF308F0038308E00A8
:100FA00010140C1083160C140B178B1708008B13DE
:100FB00007309F00083083168E007C3085003B3060
:100FC00086008312850186018B170800A50025087D
:100FD00083169B001C140000000000000000831614
:100FE00003131A08080064008001840A0406031928
:100FF00000340406F42F0D30EE220A30EE220800F1
:02400E00741F1D
:1042000000000000000000000000000000000000AE
:00000001FF
